:020000040040BA
:10000000002740202D0F4000290F4000290F4000FD
:10001000290F4000290F4000290F40000000000078
:10002000000000000000000000000000290F400058
:10003000290F400000000000290F4000290F400058
:10004000290F4000290F4000290F40009D12400059
:10005000290F4000290F4000290F4000290F4000C0
:10006000290F4000000000008D0A4000A10A400056
:10007000B50A4000290F4000290F4000290F400019
:10008000C90A4000DD0A4000290F4000290F400046
:10009000290F4000290F4000290F4000290F400080
:1000A00071124000290F4000290F4000290F400025
:1000B000290F4000290F4000290F4000290F400060
:1000C000290F4000290F4000290F4000290F400050
:1000D00000000000290F400000000000290F400030
:1000E000290F4000290F4000290F4000290F400030
:1000F000290F4000290F4000290F4000290F400020
:10010000290F4000290F4000290F4000290F40000F
:10011000290F400000000000000000000000000067
:10012000290F4000290F4000290F4000290F4000EF
:10013000290F400000000000290F4000290F400057
:1001400010B5054C237833B9044B13B10448AFF311
:1001500000800123237010BD3C04402000000000FB
:10016000041540000C4B43B10C480D4910B5AFF3DA
:1001700000800C48036823B910BD0A48036833B9EE
:100180007047094B002BF7D0BDE810401847064BCD
:10019000002BF5D0184700BF0000000004154000F8
:1001A000400440200415400000000000034B1B6881
:1001B00043F4802319430160002070475804402015
:1001C00041B9094A136823F080731360026813432E
:1001D00003607047044A136843F080731360026839
:1001E00013430360704700BF580440200268034B6C
:1001F0001B68194311430160704700BF5804402039
:10020000036823EA0101024B1B6819430160704730
:1002100058044020826883689A4203D082688368C9
:100220009342FBD118467047C068704770B50646C8
:100230000D46046804F480344FF4803109480A4BB9
:1002400098472DB94FF0FF33736024B9002070BD7B
:10025000013D7560F9E74FF480310248034B984740
:10026000F4E700BF30180E4001024000ED014000ED
:1002700008B5074B984203D0064B984204D008BDFE
:100280001520054B984708BD2A20034B9847F6E7F1
:100290000080004000800540110C4000436823F4BA
:1002A000702343604368090401F4702119434160DD
:1002B000704730B443F69924056915F0020F03D155
:1002C000013CF9D101200CE0446814F0020F06D083
:1002D000120402F4702211430BB141F08071C1602D
:1002E000002030BC704732B900EB8100036B23F073
:1002F00001030363704700EB8100036B43F00103CC
:100300000363704732B900EB8100036B23F00203F3
:100310000363704700EB8100036B43F00203036348
:100320007047042A03D06AB1082A16D0704700EB40
:100330008100036B23F008030363036B43F00403A2
:100340000363704700EB8100036B23F00803036332
:10035000036B23F004030363704700EB8100036B1E
:1003600043F008030363E1E700EB81010B6B23F02B
:10037000F0030B630B6B1A430A637047431E194467
:10038000B1FBF0F0431EFE2B94BF00B24FF0FF30E4
:1003900070477AB110B4144600EB81010B6B23F463
:1003A0007F430B630A6B42EA04220A6300205DF874
:1003B000044B70474FF0FF30704700EB8111086A23
:1003C00070470000014B1860704700BF5C0440207C
:1003D000024B1B6803EBC010425470475C04402082
:1003E000024B1B6803EBC010405C70475C0440206C
:1003F00070B504460D4616461BB90D4B9847B042E2
:1004000015D03246294620460A4B984704F00F0083
:1004100040F0B000084CA047C5F3021040F01000B7
:10042000A04705F00F00A0473046044B984770BD29
:10043000E1034000D103400091044000B1064000B8
:100440002DE9F0410D480E4B98470E4B9847402040
:100450000D4B984700254FF001082F460B4E002406
:1004600043463A46E1B22846B0470134802CF7D1E2
:100470000135EDB2042DF2D1BDE8F08160044020D9
:10048000C5034000D104400091044000F103400046
:1004900038B505460822094B5A63094C012120460C
:1004A000084B984701231A4629462046064CA04788
:1004B0004FF4FD70054B984738BD00BF00100E404B
:1004C000008000409D024000B30240000100402037
:1004D0002DE9F843664D4FF400362E61C5F8A06053
:1004E000644B08271F61C3F8A0706E66C5F8906062
:1004F0006E656E62C5F880602A6F22F400322A674A
:100500006A6F22F400326A675F66C3F890705F65B5
:100510005F62C3F880701A6F22F008021A675A6F80
:1005200022F008025A671F602E601F632E63DFF8F7
:100530007C8100234FF480024FF0805140464E4CA6
:10054000A04700234FF400124FF080514046A047CF
:1005500000234FF000724FF080514046A047002327
:100560004FF480024FF080514046A04700234FF4E3
:1005700000124FF080514046A04700234FF0007218
:100580004FF080514046A0473C4C4FF00209C4F860
:1005900000904FF08008C4F80080636843F00103C6
:1005A00063603A4601212046354B984700220121DD
:1005B0002046344B9847002201212046324B984771
:1005C000636823F0020363600022012120462F4B61
:1005D0009847636823F080036360636843F0100307
:1005E00063602B492B482C4B9847C2B2012120460F
:1005F0002A4B984720462A4B9847012323606E6375
:1006000040F6B830274CA0472E6340F6B830A047DC
:100610002E63A820244CA0471F20A047D320A0472A
:100620000020A0474020A047A120A047C820A04705
:10063000DA20A0474846A0478120A0478F20A04746
:10064000A420A047A620A047D520A0474046A04709
:100650008D20A0471420A047DB20A0474020A047C2
:10066000D920A047F120A047AF20A047BDE8F883DC
:1006700000120E4000100E4099094000008000401A
:1006800023034000E70240000503400069034000E7
:1006900080D1F00880841E007D0340009303400059
:1006A00071024000010040209104400000140E40FF
:1006B00038B505460822094B1A63094C012120462A
:1006C000084B984701231A4629462046064CA04766
:1006D0004FF4FD70054B984738BD00BF00100E4029
:1006E000008000409D024000B30240000100402015
:1006F00010B51048104B98473E2100200F4B9847EB
:100700000F4CA0470028FCD00E4B98470E4A0F4BC9
:100710009A620F4CA0470028FCD002200D4B98474E
:1007200000200D4B98470D4B98470248024B9847C5
:1007300010BD00BF00A3E111011140008D0B40006E
:10074000E10B4000F10B4000013F182000060E4075
:10075000010C4000F10A4000290B4000F50F400059
:10076000F8B54FF40042484B5A60BFF34F8FBFF3C8
:100770006F8F464B0022C3F850225A6942F4003270
:100780005A61BFF34F8FBFF36F8FD3F88070C7F3F9
:100790004E3607F007000430C7F3C907B7FA87FEE3
:1007A0000EF01F0EBFF34F8F4FF0FF3404FA00FC22
:1007B00006FA00F004FA0EF407FA0EFE1D463A4659
:1007C000734640EA0301C5F86012013A2344B2F1CE
:1007D000FF3FF6D1013E6044B6F1FF3FEFD1BFF3DA
:1007E0004F8F2A4B5A6942F480325A61BFF34F8FC0
:1007F000BFF36F8F264A27495160A1F58071516080
:10080000BFF34F8FBFF36F8FD3F8902222F0010216
:10081000C3F89022D3F8942222F00102C3F8942264
:10082000BFF34F8FBFF36F8F0A201B4CA0470B20E5
:10083000A0470C20A0471020A0471120A047174B2D
:100840004FF480721A61C3F8A0201A63A3F5806385
:100850004FF400625A61C3F8A0205A66C3F8902092
:100860005A651A62C3F88420196F21F40061196770
:10087000596F21F400615967C3F8C020C3F8D42030
:10088000C3F8B020F8BD00BF50180E4000ED00E0E6
:10089000000C0E400C08005A110C400000120E40D3
:1008A00001637047416370474264B1F1C05F3AD061
:1008B00013D8B1F1006F25D0B1F1805F0AD1036F79
:1008C00013430367436F416F0B4023EA02034367FF
:1008D000426070470029FBD17047B1F1205F21D001
:1008E00009D8B1F1005FF3D1036F13430367436F7E
:1008F00013434367ECE7B1F1405F13D0B1F1605FA0
:1009000010D0E5E710B4016F046FD34321401C46BB
:1009100019400167436F416F0B40234043674260BA
:100920005DF8044B7047036F016F0B4023EA02032D
:100930000367436F13434367CAE7416412F0010F33
:100940000DD1016612F00A0F0BD0016212F0020FF6
:1009500009D112F0080F08D0C0F8841005E04166F4
:10096000F0E74162F2E7C0F8801041610160704732
:1009700010B4019C41644CB901664BB101654AB9A0
:100980004163016101605DF8044B70474166F4E723
:100990004165F4E70163F4E770B582B00546164699
:1009A0001C46B1F1005F14D00AD9B1F1405F24D0E8
:1009B000B1F1605F21D0B1F1205F17D000201AE0C3
:1009C000B1F1805F05D0B1F1C05F02D0B1F1006F2D
:1009D000F4D132462846114B984714F0010F02D14A
:1009E0002E66012007E06E66012004E01A463146BB
:1009F0000B4B9847012002B070BD04F00103009337
:100A0000C4F38003B1F1605F14BF002201223146BC
:100A10002846044CA0470120EDE700BFA90840008C
:100A20003B09400071094000836B0B4214BF012059
:100A300000207047C06C7047806C70472DE9F04112
:100A4000044688460E4B9847054620460D4B98476E
:100A5000054013D00C4C04F1600603E0B4420DD005
:100A600010345DB120684045F8D161682942F5D065
:100A7000E3689847636825EA0305EFE7BDE8F0817E
:100A8000350A4000390A40006006402008B50A21B6
:100A90000148024B984708BD000E0E403D0A400039
:100AA00008B50B210148024B984708BD00100E40C5
:100AB0003D0A400008B50C210148024B984708BD8B
:100AC00000120E403D0A400008B510210148024BBB
:100AD000984708BD00140E403D0A400008B511219A
:100AE0000148024B984708BD00160E403D0A4000E1
:100AF000032811D0042812D002280CBF4FF48071B3
:100B00000021084A136B23F440730B431363936E65
:100B100013F0080FFBD070474FF44071F1E74FF42A
:100B20000071EEE700060E40174A136B23F07003C6
:100B300018431063936E13F0080F0AD14FF48053DB
:100B400011498A6E12F0080F03D1013BF9D101203F
:100B500070470D4A136B23F0030343F00203136342
:100B6000936E13F0080F0AD14FF4805306498A6E32
:100B700012F0080F05D1013BF9D101207047002088
:100B800070470020704700BF00060E40A0B90E4815
:100B9000036A090289B20D4A1A400D4B13431943E7
:100BA00001620246936E13F0010FFBD0064A116AF0
:100BB000084B0B431362704703490B6A064A1A40FD
:100BC000064B13430B62704700060E40FCFFC8FF44
:100BD0000100370000003701FCFFC8FE02003701AA
:100BE000024B986E00F48030704700BF00060E4044
:100BF0004FF00052014B9A62704700BF00060E4052
:100C0000024B986E00F00200704700BF00060E40D5
:100C10003F281ED81F280CD8114B9A690123834006
:100C2000934318D0012303FA00F00D4B1861002004
:100C3000704720380A4BD3F808210123834093439F
:100C40000BD0012303FA00F0054BC3F8000100208C
:100C5000704701207047002070470020704700BF98
:100C600000060E4070470000104A136F23F4C003C3
:100C700043F480031367116A0D4B0B431362936EA9
:100C800013F0080FFBD04FF4FA7300BF013BFCD107
:100C9000064A136A13F0080FFBD0044A136F23F4BB
:100CA000C00343F480031367704700BF00060E4083
:100CB000040037002DE9F843431E042B00F207819E
:100CC000DFE813F00500050015001500F600814A65
:100CD000136923F00403136101227F4B1A70BFF3E1
:100CE0005F8F62B6BFF34F8F30BFBDE8F883044615
:100CF00003280CBF00204FF40010784B984772B6C1
:100D0000BFF35F8F0022744B1A700122744B1A706C
:100D1000744B1F6A1D6B744AD2F800809E6A734A36
:100D20003A431A6205F00309B9F1010F40F28980D4
:100D300025F0030141F0010119631A46936E13F087
:100D4000080FFBD011F0700F08D021F07001654B37
:100D500019631A46936E13F0080FFBD0644B984743
:100D6000604A936E13F4003FFBD05E4A116A614BF8
:100D70000B4043F45C131362936E13F4803FFBD07B
:100D800028F47063584A1360042C5CD0524C012341
:100D90002370BFF35F8F62B6574B984772B6BFF3AD
:100DA0005F8F0023237017F0020F55D04D4A136A4E
:100DB00052491940524B0B431362116A514B0B407D
:100DC00043F45C131362504B3340002B6ED046F05B
:100DD0000056444B9E620221B9F1020F04D1414AF0
:100DE000936E13F0020FFBD03E4A136B23F0700397
:100DF00005F0700003431363936E13F0080FFBD0EC
:100E0000394BC3F80080A3F5C0631D631A46936E87
:100E100013F0080FFBD0334A936E0B42FCD0002234
:100E20002F4B1A70394B1B681BB198470022374B68
:100E30001A600122284B1A70BFF35F8F62B6BDE8BB
:100E4000F88329467EE7A2F5C062116A304B0B4059
:100E500043F45C13136299E717F0010FB3D0214BF1
:100E60001B6A13F0010F0BD11E490B6A294A1A4065
:100E7000294B13430B620A46936E13F0010FFBD00C
:100E8000184B1B6A13F0807F08D1164A116A234B56
:100E90000B431362936E13F4803FFBD0114A116A27
:100EA000184B0B4043F45C1313628CE7002193E76B
:100EB000084A136943F004031361194A194B1A6075
:100EC0000122054B1A70BFF35F8F62B630BFBDE8D9
:100ED000F88300BF00ED00E00A004020650C4000F0
:100EE000D006402000060E40000C0E4008003700DF
:100EF000F10B4000FFFFC8FE690C4000FCFFC8FE7C
:100F00000200370187FFC8FF0000FF07D40640201A
:100F1000FEFFC8FFFCFFC8FF0100370000003701DB
:100F2000040000A510180E40FEE7000000B583B0D5
:100F3000254B264A9A4210D0254B234A9A420CD27E
:100F4000013B9B1A23F00303043313441F4951F858
:100F5000040B42F8040B9A42F9D11E4B1E4A9A42E6
:100F60000AD2013B9B1A23F00303043313440021EC
:100F700042F8041B9342FBD1184A194B23F07F031C
:100F80009360EFF31083B3FA83F35B09019372B6B6
:100F9000BFF35F8F0022134B1A700199124A136836
:100FA00043F470031360BFF34F8FBFF36F8F29B10A
:100FB00001220C4B1A70BFF35F8F62B60B4B984740
:100FC0000B4B9847FEE700BF00004020041540008F
:100FD0003C044020FC0640203C04402000ED00E0A2
:100FE000000040000A00402088ED00E06D13400042
:100FF000551340003B4B1B6B03F00303012B1DD02B
:1010000083B1022B36D0374B1B6B03F07003702B70
:101010005FD0344B1A6B3449C2F302120B68D340D1
:101020000B607047314B5B6913F0800F14BF4FF4B6
:1010300000424FF4FA422C4B1A60E4E7294B1B6A3A
:1010400013F0807F03D02A4A274B1A60DBE7294A36
:10105000254B1A60234B1B6A03F07003102B05D03D
:10106000202BD0D1224A204B1A60CCE7224A1E4BBB
:101070001A60C8E71B4B1B6A13F0807F16D01C4A0E
:10108000194B1A60174B1B6B03F00303022BBAD1E9
:10109000144A916A926A1448C1F30A41036801FB39
:1010A0000333D2B2B3FBF2F30360ACE7114A0E4B49
:1010B0001A600C4B1B6A03F07003102B05D0202B19
:1010C000E0D10B4A084B1A60DCE70B4A064B1A606A
:1010D000D8E7054A13680949A1FB03135B081360AD
:1010E000704700BF00060E400C00402010180E4054
:1010F000001BB70000093D0000127A00ABAAAAAAA3
:10110000164B984213D9164B984215D9154B984255
:1011100016D9154B984217D9144B984218D9144B2D
:10112000984294BF134A144A144B1A6070474FF008
:101130008062124B1A607047114A104B1A60704758
:10114000104A0E4B1A6070470F4A0C4B1A607047DA
:101150004FF00422094B1A60704700BFBFF35E01D5
:101160007FE7BD023FDB1C04FFCE7B05BFC2DA0672
:101170007FB639080005000400060004000C0E408C
:101180000001000400020004000300042DE9F04106
:101190002DED028B82B0B0EE408A80460F46204C87
:1011A000002120461F4B98479FED1F7AC7EE087A13
:1011B000FDEEE77ACDED017ABDF8041020461B4B19
:1011C000984717F4803F16D1194B0822C3F88020A6
:1011D000C3F88021802183F803131A6017F4403F7D
:1011E00019D14FF440310E48124B984702B0BDEC74
:1011F000028BBDE8F08120460F4B98470446084E0D
:101200000D4D3046A8478442FBD004EB080104484A
:101210000A4B9847D8E739460148094B9847E5E714
:1012200030180E40C101400000000047AD014000F1
:1012300000E100E001024000150240002D024000E4
:10124000ED01400038B504460D46064B984720B9DD
:1012500029462046044B984738BD29462046034B73
:10126000984738BD290A4000A1084000A508400061
:1012700000B583B001210548054B98470190012135
:101280000448054B984703B05DF804FB00C00040DC
:10129000BB034000000E0E404512400010B50C4844
:1012A0000C4B9847044610F0010F03D114F0020FC5
:1012B00008D110BD4FF400310020B1EE000A064BFA
:1012C0009847F3E74FF080410448054B9847F0E713
:1012D00030180E40290240008D11400000120E40CF
:1012E0004512400038B5124B9847124B9847124BA5
:1012F00098474FF40042114B5A600A20104DA847FE
:10130000002301224FF060510E480F4CA0470C20E3
:10131000A84700234FF080424FF060510B48A04790
:101320004FF480311020B1EE000A094B984738BDC8
:1013300061074000F10640004104400050180E4093
:10134000110C4000000E0E409909400000120E40A2
:101350008D11400008B5034B98470225024C2846E2
:10136000A047FCE7E5124000B50C400070B50F4EF9
:101370000F4D761BB61018BF002405D0013455F868
:10138000043B9847A642F9D10A4E0B4D761B00F05C
:10139000A7F8B61018BF002406D0013455F8043B56
:1013A0009847A642F9D170BD70BD00BFEC14400053
:1013B000EC144000F4144000EC144000024B13B154
:1013C000024800F005B8704700000000DD1340003F
:1013D000002301461A46184600F01EB838B50A4CDC
:1013E0000A4D641BA4100AD004F18043013B05EBB5
:1013F0008305013C55F804399847002CF9D1BDE824
:10140000384000F077B800BF0415400000154000D8
:10141000704700BF704700BF2DE9F8432C4D0646CA
:10142000286898460F469146FFF7F2FF294B1C6843
:10143000D4F84831002B3ED05A681F2A1CDC02F138
:10144000010E76B103EB82010124C1F88890D3F834
:10145000880194402043022EC3F88801C1F8088116
:1014600023D00232C3F804E0286843F82270FFF763
:10147000D1FF0020BDE8F883174B0BB34FF4C870C1
:10148000AFF300800346D8B1D4F8482102600021B0
:1014900041600A46C4F848014FF0010EC0F88811B7
:1014A000C0F88C11002EDCD0CCE7D3F88C110C43A3
:1014B000C3F88C41D5E704F5A673C4F84831BBE7FF
:1014C0002868FFF7A7FF4FF0FF30BDE8F88300BFA3
:1014D00038044020DC1440000000000010004020D0
:1014E000F8B500BFF8BC08BC9E467047BD1340006D
:1014F00065014000F8B500BFF8BC08BC9E467047C7
:041500004101400065
:10150400BFF35F8F0138FBD17047010000093D0034
:1015140000000000FC02402064034020CC03402073
:1015240000000000000000000000000000000000B7
:1015340000000000000000000000000000000000A7
:101544000000000000000000000000000000000097
:101554000000000000000000000000000000000087
:101564000000000000000000000000000000000077
:101574000000000000000000000000000000000067
:101584000000000000000000000000000000000057
:101594000000000000000000000000000000000047
:1015A4000000000000000000000000000000000037
:1015B4000000000000000000010000000000000026
:1015C4000E33CDAB34126DE6ECDE05000B000000EB
:1015D4000000000000000000000000000000000007
:1015E40000000000000000000000000000000000F7
:1015F40000000000000000000000000000000000E7
:1016040000000000000000000000000000000000D6
:0C1934000000000000000000D806402069
:0400000500400F2D7B
:00000001FF
